:020000040800F2
:1000000078390020D11501082112010823120108B6
:10001000251201082712010829120108000000001A
:10002000000000000000000000000000730F010845
:100030002B12010800000000150F01083112010801
:10004000191601081D1601082116010825160108B8
:10005000291601082D160108311601083516010868
:10006000391601083D160108411601084516010818
:10007000491601084D160108511601083D140108E2
:10008000591601085D160108611601086516010878
:10009000691601086D160108711601087516010828
:1000A000791601087D1601088116010885160108D8
:1000B000451201082D09010891160108951601083D
:1000C000991601089D160108A1160108A516010838
:1000D000A9160108AD160108B1160108B5160108E8
:1000E000651001087D140108C1160108C516010834
:1000F000C9160108CD160108D1160108D516010848
:10010000D916010875120108E1160108E516010863
:10011000E9160108ED160108F1160108F5160108A7
:10012000F916010885120108011701087D1201085E
:10013000091701080D10010811170108151701080A
:10014000191701081D170108211701084D12010890
:10015000291701082D170108311701083517010863
:10016000391701083D1701086B12010861120108D7
:1001700049170108571201085117010855170108BE
:10018000591701085D170108F8B504000D001600A5
:100190001F000023621B92B2210089B2FFB2380017
:1001A00080B202F098FF0023621B92B2210089B254
:1001B000F6B256FA87F0FFB2C01B80B202F08BFF96
:1001C0000123F6B2FFB2F21B92B2210089B2FFB254
:1001D000380080B202F07FFF0123F6B2FFB2F21BBB
:1001E00092B2201B2818411C89B2FFB2380080B29D
:1001F00002F071FFF1BD2DE9F84305000E00170074
:100200009846089C5FF00009B6B2701CADB2A842D7
:1002100040DA5FFA88F8B8F10100FFB2B84239DA83
:100220000023AA1B92B2290089B25FFA88F84046DF
:1002300080B202F050FF0023AA1B92B2290089B2BB
:10024000FFB257FA88F05FFA88F8B0EB080080B286
:1002500002F041FF0123FFB25FFA88F8B7EB080212
:1002600092B2290089B25FFA88F8404680B202F063
:1002700032FF0123FFB25FFA88F8B7EB080292B2AF
:10028000681B3018411C89B25FFA88F8404680B27A
:1002900002F021FF200080B202F026FE5FF001098B
:1002A0000DE00023A81B821E92B2691E89B2484647
:1002B00050FA88F080B202F00EFF19F10109FFB286
:1002C0005FFA88F8B7EB08008145EAD3BDE8F1830F
:1002D0002DE9F04F83B005000E0010001F00002133
:1002E0008DF8001000215FF000085FF00009002287
:1002F000ADF802200022ADF804205FF0000A5FF0A4
:10030000000B0C9CB6B2BFB2BE420ED1ADB280B2F1
:1003100085420AD10823220092B2290089B2300016
:1003200080B202F02AFFBDE8F78FADB280B28542FD
:100330002CD1BFB2B6B2B74202D2390037000E009C
:100340000123220092B2290089B2300080B202F06B
:1003500014FF16F101080AE00223220092B22900DC
:1003600089B2300080B202F008FF18F101081FFACC
:1003700088F8BFB2B845EFD30423220092B2290017
:1003800089B2380080B202F0F8FECCE7B6B2BFB254
:10039000BE4213D180B2ADB2A84202D20100280001
:1003A0000D00A4B20094B31EDBB27A1ED2B2691E55
:1003B00089B2401E80B2FFF71EFFB4E7BFB2B6B2EB
:1003C000B74203D2B6B2BFB2F11B02E0BFB2B6B2BF
:1003D000B91B80B2ADB2A84203D2ADB280B22A1A24
:1003E00002E080B2ADB2421B914201DA012100E08D
:1003F00000218DF800109DF80010002905D029007B
:1004000035000E00010038000F00BFB2B6B2B7428F
:1004100005D2290005000800390037000E00B91B7D
:10042000ADF8021080B2ADB2A84201D2291A00E0A4
:10043000411BADF80410BDF80210491C49420222CC
:1004400091FBF2FAA946ADB280B2854202D25FF0CA
:10045000010B01E05FF0FF3BB04619E008232200EA
:1004600092B2494689B2404680B202F086FEBDF99A
:10047000040010EB0A0A0FFA8AFABAF1000F05D449
:1004800049FA8BF9BDF90200BAEB000A18F101082C
:10049000BFB21FFA88F84745FFF445AF9DF800004A
:1004A0000028DBD00823220092B2414689B2484698
:1004B00080B202F062FEDAE738B5040010001A00DC
:1004C000049D631A9BB2821A92B2210089B280B253
:1004D00002F0F9FD280002F006FEDFF86804038848
:1004E000DFF864040288DFF85C040088411E89B2EA
:1004F000DFF854040088401E80B202F0E4FD31BDF4
:10050000F8B504000D0016000027280003F090F94C
:10051000711E884204D2280003F08AF9070000E027
:10052000771E002F07D03A002900200003F0B2F90F
:100530000020385501E000202070F1BD70B50400A6
:1005400000250026582004F01EF80500002D11D0CB
:100550002C82280000F0C9F9182004F014F80600D5
:10056000002E03D075600720307403E0280004F0EB
:1005700058F90025300070BDF8B504000D001600D4
:100580000027002C02D0608D0A2801D100201EE037
:10059000202003F0F8FF0700002F17D07C60122204
:1005A000290017F10800FFF7ABFFFE61380000F0EB
:1005B000B2F9608D14EB8000C762608D401C6085CD
:1005C000608D012802D1E06A012181760120F2BD0F
:1005D0002DE9F04704000D0016001F00DDF8208013
:1005E0005FF000095FF0000A142003F0CCFF8146A1
:1005F000B9F1000F1ED0A9F80040C9F80450A9F8BD
:10060000086089F80A70C9F81080484600F090F92F
:10061000182003F0B8FF8246BAF1000F05D0CAF8DF
:10062000049006208AF8100004E0484604F0F9F827
:100630005FF000095046BDE8F0872DE9F04383B034
:1006400004000F0015001E00708BFF2880F221812E
:100650005FF000095FF000080822002100A804F004
:1006600053FBDFF8E0020088A4B2A04205D3DFF814
:10067000D8020088BFB2B84201D200200AE1ADF82A
:100680000040ADF80670287C042813D1DFF8140967
:10069000686168680188298090F83510012904D0C4
:1006A00090F83500022840F0E580ADF80070ADF814
:1006B0000640DFE0287C07283ED1B4F11600ADF8F3
:1006C000020017F11600ADF80400DFF8DC086861DD
:1006D00015F1080000A9082204F020FB708B16EB2E
:1006E00080000562708B401C7083D5F80480B8F8D8
:1006F0001000288098F8080000281BD10020FFF780
:100700001DFFD0F80490C9F80C50012189F8081099
:10071000DFF89818C9F80410DFF89418C9F8001029
:1007200033000200FFB2390089B2B4F1160080B282
:10073000FFF783FF0120ADE0287C012802D0287C50
:10074000052818D1B4F10800ADF8020017F11A001D
:10075000ADF80400287C012806D1DFF8580868614C
:1007600068680088288085E0DFF84C086861686860
:10077000008828807EE0287C02280FD1DFF83C0822
:1007800068616868006800882880B4F11400ADF8DA
:10079000020017F11400ADF804006BE0287C032878
:1007A0000ED1DFF81C086861686800882880B4F101
:1007B0001400ADF8020017F11400ADF8040059E080
:1007C000287C06280ED1DFF8FC076861686801887C
:1007D00029800189611AADF80210807A3818ADF8C5
:1007E000040047E0287C082831D1DFF8DC07686185
:1007F000686801882980017F002907D1201FADF892
:10080000020017F11200ADF8040033E0017F012966
:100810000CD1ADF80040B4F11200ADF8020017F1B0
:100820007400ADF80400ADF8067023E0007F0228E4
:1008300020D1ADF80040B4F11200ADF8020017F17C
:100840007800ADF80400381DADF8060012E0287CF1
:10085000092806D1DFF8680968616868008828807F
:1008600008E0287C0A2805D1DFF858096861686823
:100870000088288015F1080000A9082204F04EFA2B
:10088000708B16EB80000562708B401C708301201A
:1008900000E00020BDE8FE83F8B504000D0016005E
:1008A0000027002C01D1002005E0300002F0C0FF3D
:1008B000002802D10020F2BD7F1C608B8742F9D254
:1008C00014EB8700006A007C0428F5D114EB870044
:1008D000006A40680188ADB2A942EDD12E223100F4
:1008E000801CFFF70DFE0120E5E7002801D1002064
:1008F00010E0DFF8B01A4160DFF8AC1A01600121A6
:1009000080F828100021017200214185DFF89C1A2F
:10091000416501207047002801D1002007E04FF613
:10092000FF7101801F2141800021817601207047E5
:10093000002801D1002004E00021C17201210173CF
:10094000012070479E0000209C000020F8B50400A4
:100950000025002C02D1002087E26D1C608B8542AF
:1009600080F0828214EB8500006A007C042834D178
:1009700014EB8500006A4068008889B28842ECD197
:1009800014EB8500006A406803F04BFF14EB850010
:10099000006A0021416014EB8500006A03F041FF0A
:1009A000608B401E85420FD0608B14EB8000C069C5
:1009B00014EB85010862608B14EB80000021C1619B
:1009C000608B401E608306E014EB8500002101620D
:1009D000608B401E6083012047E214EB8500006AB3
:1009E000007C012834D114EB8500006A406800883F
:1009F00089B28842B1D114EB8500006A406803F0E7
:100A000010FF14EB8500006A0021416014EB8500A3
:100A1000006A03F006FF608B401E85420FD0608B9A
:100A200014EB8000C06914EB85010862608B14EB45
:100A300080000021C161608B401E608306E014EBE2
:100A4000850000210162608B401E608301200CE262
:100A500014EB8500006A007C052835D114EB850075
:100A6000006A4068008889B288427FF476AF14EB50
:100A70008500006A406803F0D4FE14EB8500006A2C
:100A80000021416014EB8500006A03F0CAFE608B10
:100A9000401E85420FD0608B14EB8000C06914EBC0
:100AA00085010862608B14EB80000021C161608BBE
:100AB000401E608306E014EB850000210162608B1C
:100AC000401E60830120D0E114EB8500006A007CA9
:100AD000032835D114EB8500006A4068008889B28C
:100AE00088427FF43AAF14EB8500006A406803F057
:100AF00098FE14EB8500006A0021416014EB85002C
:100B0000006A03F08EFE608B401E85420FD0608B22
:100B100014EB8000C06914EB85010862608B14EB54
:100B200080000021C161608B401E608306E014EBF1
:100B3000850000210162608B401E6083012094E1EA
:100B400014EB8500006A007C02283ED114EB85007E
:100B5000006A40680068028889B28A427FF4FDAE6C
:100B60004188491E418089B2002901D103F059FE14
:100B700014EB8500006A406803F053FE14EB850017
:100B8000006A0021416014EB8500006A03F049FE11
:100B9000608B401E85420FD0608B14EB8000C069D3
:100BA00014EB85010862608B14EB80000021C161A9
:100BB000608B401E608306E014EB8500002101621B
:100BC000608B401E608301204FE114EB8500006ABA
:100BD000007C072847D1002614EB8500006A47688F
:100BE000388A89B288427FF4B8AE002606E0F6B2B1
:100BF00017EB8600C06A03F014FE761C3000C0B20A
:100C0000798D80B28842F2D30020788514EB85007C
:100C1000006A406803F005FE14EB8500006A0021BD
:100C2000416014EB8500006A03F0FBFD608B401E01
:100C300085420FD0608B14EB8000C06914EB8501F6
:100C40000862608B14EB80000021C161608B401E44
:100C5000608306E014EB850000210162608B401E7A
:100C60006083012001E114EB8500006A007C062806
:100C700035D114EB8500006A4068008889B288424B
:100C80007FF46BAE14EB8500006A406803F0C9FD89
:100C900014EB8500006A0021416014EB8500006AB6
:100CA00003F0BFFD608B401E85420FD0608B14EBBC
:100CB0008000C06914EB85010862608B14EB800032
:100CC0000021C161608B401E608306E014EB85004B
:100CD00000210162608B401E60830120C5E014EB9F
:100CE0008500006A007C082845D114EB8500006A65
:100CF0004668308889B288427FF42FAE706A002837
:100D000004D0706A03F08DFD002070623022002153
:100D100014EB8500006A406803F0F6FF14EB8500D1
:100D2000006A406803F07DFD14EB8500006A002135
:100D3000416014EB8500006A03F073FD608B401E78
:100D400085420FD0608B14EB8000C06914EB8501E5
:100D50000862608B14EB80000021C161608B401E33
:100D6000608306E014EB850000210162608B401E69
:100D70006083012079E014EB8500006A007C09287B
:100D800035D114EB8500006A4068008889B288423A
:100D90007FF4E3AD14EB8500006A406803F041FD89
:100DA00014EB8500006A0021416014EB8500006AA5
:100DB00003F037FD608B401E85420FD0608B14EB33
:100DC0008000C06914EB85010862608B14EB800021
:100DD0000021C161608B401E608306E014EB85003A
:100DE00000210162608B401E608301203DE014EB16
:100DF0008500006A007C0A287FF4AFAD14EB850003
:100E0000006A4068008889B288427FF4A6AD14EB7E
:100E10008500006A406803F004FD14EB8500006A59
:100E20000021416014EB8500006A03F0FAFC608B3E
:100E3000401E85420FD0608B14EB8000C06914EB1C
:100E400085010862608B14EB80000021C161608B1A
:100E5000401E608306E014EB850000210162608B78
:100E6000401E6083012000E00020F2BD16B54468FA
:100E7000002C01D1002094E0012184F83110007C85
:100E8000042840F08D80608E02F02EF894F8300037
:100E9000012842D1012002F054F994F835000028CD
:100EA0000BD194F83430A21CBDF80010BDF8060038
:100EB000C0B280B202F073F872E094F835000128F5
:100EC00019D1032002F050FAA01C02F0B1FCA21CC0
:100ED000BDF80010C00010FA81F189B2DFF85C0C97
:100EE0000088BDF80630C01A80B202F043FB002033
:100EF00002F03AFA54E094F83500022850D101206B
:100F000002F032FAA21CBDF80010BDF8060002F093
:100F100031FB002002F028FA42E0002002F011F933
:100F200094F8350000280BD194F83430A21CBDF899
:100F30000010BDF80600C0B280B202F030F82FE019
:100F400094F8350001281AD1032002F00DFAA01CF4
:100F500002F06EFCA21CBDF800100F23584310FADB
:100F600081F189B2DFF8D40B0088BDF80630C01AD1
:100F700080B202F0FFFA002002F0F6F910E094F8D7
:100F8000350002280CD1012002F0EEF9A21CBDF8B8
:100F90000010BDF8060002F0EDFA002002F0E4F9BE
:100FA000012016BD6D0E00085914000804E5000864
:100FB00010E90008CD0F0008C9110008B11300089E
:100FC000A71500086F160008A31600082DE9F743BF
:100FD00000215FF0000944680125002600275FF02A
:100FE0000008002C01D10020E7E0012084F8350042
:100FF00014F10C0002F01CFC814694F83400002827
:1010000010D1A068DFF8381B884205D1DFF8346BB7
:10101000A768DFF8348B19E0DFF8306BA768DFF8DA
:10102000308B13E094F8340001280FD16068DFF8AA
:10103000241B884205D1DFF8146B6768DFF8108B3A
:1010400004E0DFF8006B6768DFF8FC8A0096BDF803
:101050000A30DBB29BB2BDF80820D2B292B2BDF822
:101060000400B0F1080189B2BDF80400FFF724FACA
:10107000B9F10A0F37D24D4540D2BDF80400691CC2
:10108000B0EBC1000A2839D30097BDF80A30DBB2B3
:101090009BB2BDF80820D2B292B2BDF80400691C20
:1010A000B0EBC10189B2BDF80400B0EBC50080B25D
:1010B000FFF702FA6D1CDEE70097BDF80A30DBB2DD
:1010C0009BB2BDF80820D2B292B2BDF80400691CF0
:1010D000B0EBC10189B2BDF80400B0EBC50080B22D
:1010E000FFF7EAF96D1CB9F10100854206D2BDF89F
:1010F0000400691CB0EBC1000A28DDD2BDF8040071
:10110000691CB0EBC100002816D0CDF80080BDF8F6
:101110000A30DBB29BB2BDF80820D2B292B2BDF861
:101120000400691CB0EBC10189B2BDF80400B0EB4A
:10113000C50080B2FFF7C0F94FF6FF7001F0D4FE92
:10114000012001F0FEFF5FEAC90010F11001B9F1C2
:10115000070F15D2012314F10C02BDF8040089B267
:1011600019F10104B1EBC401B0EB5100811E89B249
:10117000BDF80800C0B2123880B201F010FF14E0D0
:10118000012314F10C02BDF8040089B219F1010425
:10119000B1EBC401B0EB5100011F89B2BDF80800EA
:1011A000C0B2123880B201F0FAFE4FF6FF7001F0C3
:1011B000A1FE1F2001F098FE0120BDE8FE83000083
:1011C000591B00085D2000082DE9F64782B05FF04A
:1011D000000A00244568012600275FF000085FF040
:1011E0000009002D01D10020D9E0012085F82D0053
:1011F00015F11C0002F01CFB040015F10C0002F0BC
:1012000017FB844205D215F10C0002F011FB824657
:1012100004E015F11C0002F00BFB8246012001F0F6
:1012200090FF95F82C00002812D1A868DFF8E41D83
:10123000884206D1DFF8E07DD5F80880DFF8DC9D34
:1012400020E0DFF8DC7DD5F80880DFF8D89D19E0D4
:1012500095F82C00012815D16868DFF8CC1D88426C
:101260000AD14DF6FB6001F045FEDFF8B47DD5F8FC
:101270000480DFF8B09D05E0DFF89C7DD5F80480A0
:10128000DFF8989D0097BDF80E30DBB29BB2BDF839
:101290000C20D2B292B2BDF80800B0F1080189B2B8
:1012A000BDF80800FFF708F917E0CDF80080BDF899
:1012B0000E30DBB29BB2BDF80C20D2B292B2BDF8B8
:1012C0000800711CB0EBC10189B2BDF80800B0EB99
:1012D000C60080B2FFF7F0F8761C564501D2102EFA
:1012E000E3D3CDF80090BDF80E30DBB29BB2BDF871
:1012F0000C20D2B292B2BDF80800711CB0EBC10153
:1013000089B2BDF80800B0EBC60080B2FFF7D4F890
:101310004FF6FF7001F0E8FD5FEACA0010F110041B
:1013200095F82C00002817D115F10C0002F080FA76
:10133000012315F10C02BDF80810401CB4EBC000ED
:10134000B1EB5000C11E89B2BDF80C00C0B212381A
:1013500080B201F024FE1AE095F82C00012816D185
:1013600015F11C0002F064FA012315F11C02BDF80E
:101370000810401CB4EBC000B1EB5000C11E89B294
:10138000BDF80C00C0B2123880B201F008FE4FF672
:10139000FF7001F0AFFD1F2001F0A6FD012004B099
:1013A000BDE8F087ECDC0008F8E0000879050008EB
:1013B00076B582B0002400264568002D01D10020BA
:1013C00048E0012085F8210095F82000012801D18E
:1013D000686800E0A8680090BDF80E30DBB29BB2F0
:1013E000BDF80C20D2B292B2BDF80A10BDF80800C8
:1013F000FFF762F8012001F0A4FE15F10C0002F0E5
:1014000017FA060010E000232022BDF80800163865
:10141000E4B2B0EBC40189B2BDF80C00C0B20E3822
:1014200080B201F0BCFD641CE4B2A642EBD2002005
:1014300001F05AFD012315F10C02BDF80800B0F1CE
:10144000160189B2BDF80C00C0B20E3880B201F0AE
:10145000A6FD012004B070BD76B582B000254468B9
:10146000002C01D100209CE0012084F8280066684F
:10147000012001F066FE4FF6FF7001F03BFD0020F9
:1014800001F032FD0096BDF80E30DBB29BB2BDF824
:101490000C20D2B292B2BDF80800B0F1160189B2A8
:1014A000BDF80800FFF708F8207A002803D0E068AC
:1014B000406838E06D1C608D854205D214EB8500D4
:1014C000C06A807E0028F5D04FF6FF700090BDF80E
:1014D0000E00431CDBB2BDF80C20D2B2BDF80A00EE
:1014E000B0F1960189B2BDF80A00163880B2FEF755
:1014F00082FE012001F025FE1F2001F0F5FC0123F2
:1015000014EB8500C06A10F10802BDF80800B0F1C4
:10151000300189B2BDF80C001038C0B280B201F0C1
:101520003EFD36E06D1C418D8D4205D210EB8501EC
:10153000C96A897E0029F5D04FF6FF700090BDF88A
:101540000E00431CDBB2BDF80C20D2B2BDF80A007D
:10155000B0F1800189B2BDF80A00FEF74CFE01200F
:1015600001F0EFFD1F2001F0BFFC0123E06840689F
:1015700010EB8500C06A10F10802BDF80800B0F158
:101580001A0189B2BDF80C001038C0B280B201F067
:1015900006FD4FF6FF7001F0ADFC1F2001F0A4FC2A
:1015A000012004B070BD76B582B0002500264468E5
:1015B000002C01D1002058E0012084F8270094F885
:1015C0002600002801D1A06800E060680090BDF806
:1015D0000E30DBB29BB2BDF80C20D2B292B2BDF895
:1015E0000A10BDF80800FEF767FF012001F0A9FD11
:1015F00014F10C0002F01CF90600002E00D0761E3B
:10160000002510E000232022BDF808001538EDB2B7
:10161000B0EBC50189B2BDF80C00C0B20F3880B282
:1016200001F0BDFC6D1CEDB2B542EBD394F8250082
:10163000012803D1002001F057FC03E04FF2DE70D7
:1016400001F052FC012314F10C02BDF80800B0F1C6
:10165000150189B2BDF80C00C0B20F3880B201F09C
:101660009EFC002001F040FC012004B070BD07B5D5
:101670004068002801D1002012E001210173406878
:101680000090BDF80A30DBB29BB2BDF80820D2B2A0
:1016900092B2BDF80610BDF80400FEF70DFF012060
:1016A0000EBD2DE9F04F85B0040000250020ADF8F7
:1016B0000400002600275FF0000A5FF00108002008
:1016C000ADF800005FF0000BD4F80490B9F1000F02
:1016D00001D100202FE299F8280001280AD001202A
:1016E00089F8280099F81C00002803D10021200067
:1016F00001F0D8FA99F81EA0012001F022FDDFF8D0
:1017000030090490D9F808000390DFF82809029006
:10171000D9F804B099F81C00002843D12589A6897E
:10172000E789049800903B009BB2320092B2291FD7
:1017300089B2280080B2FEF7BFFE17E00398009040
:101740003B009BB2320092B2ADB25FFA88F818F15A
:101750000100B5EB800189B2ADB25FFA88F8B5EB54
:10176000880080B2FEF7A8FE18F101085FFA88F839
:10177000B8F11B0FE2DB029800903B009BB23200F5
:1017800092B2ADB25FFA88F818F10100B5EB8001B2
:1017900089B2ADB25FFA88F8B5EB880080B2FEF787
:1017A0008BFEB9E099F81C00012854D1DFF88808B5
:1017B0000088ADF800004FF6FF7001F095FBE3895B
:1017C000DBB2A089421ED2B26089811E89B2208913
:1017D000FEF7DAFCBDF8000001F086FBA089051FCA
:1017E000E089001FADF8040026896789032001F015
:1017F000BBFD0420009012233A0092B2290089B266
:10180000049801F05DFF0FE00420009012233A00DD
:1018100092B2ADB25FFA88F8B5EB880189B203984D
:1018200001F04EFF18F101085FFA88F8B8F11B0FBC
:10183000EADB0420009012233A0092B2ADB25FFAC4
:1018400088F8B5EB880189B2029801F039FF0020D1
:1018500001F08AFD60E099F81C0002285CD1DFF8F5
:10186000D8070088ADF800004FF6FF7001F03CFB90
:10187000E089431FDBB2A089821FD2B26089411E7A
:1018800089B22089401C80B2FEF77EFCBDF80000C2
:1018900001F02AFBA089051FE089001FADF80400B4
:1018A00026896789012001F05FFD04200090122342
:1018B000320092B2BDF80410049801F001FF12E06A
:1018C000042000901223320092B2BDF804005FFAA7
:1018D00088F85FEA880111FA80F189B2039801F073
:1018E000EFFE18F101085FFA88F8B8F11B0FE7DB8B
:1018F000042000901223320092B2BDF804005FFA77
:1019000088F85FEA880111FA80F189B2029801F043
:10191000D7FE002001F028FD99F8200099F91F104A
:1019200000B209B288420BD099F81C00002807D1F8
:101930000021200001F0B6F90121200001F0B2F9E8
:1019400099F81C00002813D1CDF800B07B1E9BB283
:10195000721C92B299F91F00281AB0F10A0189B2DB
:1019600099F91F00281A001F80B2FEF7A5FD31E08B
:1019700099F81C00012813D1032001F0F5FC062082
:10198000009014237A1E92B299F91F00281A011FA1
:1019900089B2584601F094FE002001F0E5FC19E000
:1019A00099F81C00022815D1012001F0DDFC062069
:1019B00000901423721C92B2BDF8040099F91F1014
:1019C00040FA81F0011D89B2584601F079FE0020ED
:1019D00001F0CAFC99F81F0089F8200019F10C00E9
:1019E00001F026FF8346BBF1000F00F0A3805FF0FB
:1019F000000899F81C0000281BD099F81C00012849
:101A000060D1032001F0B0FC40E0002320225FFA07
:101A10008AFABAEBCB00B5EB5000C01E5FFA88F82B
:101A2000B0EBC80189B2B01C80B201F0B8FA18F16D
:101A300001085FFA88F8BBF101008045E5D3012376
:101A400019F10C025FFA8AFABAEBCB00B5EB500041
:101A5000C11E89B2B01C80B201F0A1FA6AE0202256
:101A60005FFA8AFABAEBCB00B5EB5000001D5FFAC3
:101A700088F8B0EBC80189B2DFF8C0050088C01B48
:101A8000801C80B201F076FD18F101085FFA88F839
:101A9000BBF101008045E2D319F10C025FFA8AFA2A
:101AA000BAEBCB00B5EB5000011D89B2DFF88C0515
:101AB0000088C01B801C80B201F05CFD002001F09A
:101AC00053FC37E099F81C00022833D1012001F0C3
:101AD0004BFC13E020225FFA8AFABAEBCB00B5EB9D
:101AE00050005FFA88F818F10101B0EBC10189B22A
:101AF000B01C80B201F03EFD18F101085FFA88F8D1
:101B0000BBF101008045E5D319F10C025FFA8AFAB6
:101B1000BAEBCB00B5EB50005FFA88F818F1010181
:101B2000B0EBC10189B2B01C80B201F023FD0020EE
:101B300001F01AFC012005B0BDE8F08F9E000020E6
:101B40007CF30008B4EF000898F1000860F5000885
:101B500044F7000828F900082DE9F84F2DED088B0F
:101B600086B0002400218DF808109FEDBCAB9FEDDE
:101B7000BBBB4568002D01D1002046E2012085F85D
:101B80007500DFF8B8040088B0F13206DFF8B00461
:101B90000088483803F00EF941EC180B16F1040ADE
:101BA00053EC182B0020DFF89C1403F01BF903F012
:101BB0008DF90700DFF884040088B0F13C09DFF8F4
:101BC00080040088B0F150081FFA89F995F8740074
:101BD00099FBF0F08DF808001FFA88F80A2098FBAE
:101BE000F0F003F0E7F841EC190B002001F07CF96C
:101BF000012001F0A6FA00234A4692B2310089B2D0
:101C00000E009346994651EC180B03F05FF94B46D2
:101C10005A46310080B201F05EFA0123424692B288
:101C2000310089B20E00904699461FFA88F8404666
:101C300003F0CAF802000B0051EC180B03F072F924
:101C400003F044F94B464246310080B201F043FABA
:101C50000123D7A2711D89B200919346994653EC96
:101C6000182B0020DFF8E01303F0BCF803F02EF986
:101C70004B465A46009980B201F091F90123CCA25B
:101C80001AF10B0189B2781F80B201F088F915E0D2
:101C900015EB4400B0F9100003F08CF802000B00C3
:101CA00051EC1A0B03F0FEF907D215EB4400B0F922
:101CB000100003F07FF841EC1A0B641C95F87400D7
:101CC0008442E5D31FFA88F8404603F07DF853ECD0
:101CD000192B03F027F902000B0051EC1A0B03F04B
:101CE000FDF941EC1B0B002427E0012303AA1AF1A4
:101CF000300189B2009101929B46BFB2380003F0D7
:101D000063F880468946200003F05EF853EC192BF7
:101D100003F008FB02000B004046494603F002F9BD
:101D20000022CA4B03F05EF803F0D0F85B46019A3C
:101D3000009980B201F033F9641C0A2C80F0928083
:101D4000002001F0D1F8002001F0CEF80023042299
:101D5000514689B28A4600929B46BFB2380003F0D2
:101D600033F880468946200003F02EF853EC192BF7
:101D700003F0D8FA02000B004046494603F0D2F8BF
:101D800003F0A4F85B46009A514680B201F0A3F933
:101D9000092CD1D1012315F109021AF1280189B2C8
:101DA000009101929B46BFB2380003F00DF88046C7
:101DB0008946200003F008F853EC192B03F0B2FA1F
:101DC00002000B004046494603F0ACF800225FF0E9
:101DD000404303F007F800229D4B03F003F803F0A3
:101DE00075F85B46019A009980B201F0D8F853EC7F
:101DF0001A2B984903A803F067FB51EC1A0B002239
:101E0000954B03F04FF9BFF470AF012303AA1AF109
:101E1000280189B2009101929B46BFB2380002F0BE
:101E2000D3FF80468946200002F0CEFF53EC192BE9
:101E300003F078FA02000B004046494603F072F8BE
:101E40000022824B02F0CEFF03F040F85B46019A7D
:101E5000009980B201F0A3F86EE700BF0000000017
:101E600000000000002443E0601C0421B0FBF1F2FC
:101E700002FB1102002A19D1621C6CA103A803F015
:101E800023FB012303AAB11D89B2894690461F0096
:101E900053EC182B00206C4902F0A4FF03F016F855
:101EA0003B004246494680B201F079F895F874004B
:101EB000401E84421BD10123AA1C16F1180189B2CD
:101EC000894690461F0053EC182B0020DFF8CC1DEC
:101ED00002F088FF0022DFF8C83D02F083FF02F025
:101EE000F5FF3B004246494680B201F058F8641CB9
:101EF00095F87400844280F087801F20009015EBD5
:101F00004400B0F9100002F055FF53EC1B2B03F016
:101F1000E5F802000B0051EC180B03F003F802F097
:101F2000D5FF0300DBB21F0051EC180B02F0CEFF0F
:101F300002003B00D2B29DF80800301A411C89B261
:101F4000300080B2FEF757F99DF80800361A0020DD
:101F500000F0CAFF01230422711C89B20F009046D1
:101F6000994651EC180B02F0B1FF4B46424639003E
:101F700080B201F0B0F895F8740010281ADA621CEB
:101F80002AA103A803F0A0FA012303AAB11D89B274
:101F90000F009046994651EC180B02F097FF801DF8
:101FA0004B464246390080B200F0F9FF7EE700BFA1
:101FB0003000000095F8740010381928BFF454AFB1
:101FC000601C0321B0FBF1F201FB120000287FF43A
:101FD0006DAF621C15A103A803F076FA012303AAD2
:101FE000B11D89B2894690461F0053EC182B002082
:101FF000154902F0F7FE02F069FF3B0042464946F0
:1020000080B200F0CCFF51E7012006B0BDEC088B98
:10201000BDE8F28FD4FE00080CFB0008F0FC0008BD
:10202000B80001089C020108800401082564000032
:10203000A40C0108780D01086A1900209E000020F8
:102040009C000020000010C000001840000014C0D8
:10205000000030C0EC15010800408F402DE9F04130
:102060002DED108B88B000254FF47841ADF80410A9
:102070009FED9B8B4468002C02D1002000F008BE2D
:10208000012084F8EC0000200021CDE90401DFF8F4
:10209000880D0088533802F08DFE41EC1F0BDFF8ED
:1020A0007C0D0088693802F085FE41EC1C0B53EC76
:1020B0001F2B0020DFF8681D02F094FE41EC1A0B84
:1020C000B0EE4CBAF0EE6CBADFF84C0D0088783800
:1020D00002F070FECDE90601DFF8400D0088873878
:1020E00002F068FE41EC190B94F8EA0002F06CFE75
:1020F00002000B00DDE9060102F0F0FF41EC1E0BCF
:1021000051EC190B0022DFF81C3D02F0E7FF41EC17
:102110001D0B002000F0E8FE012001F012F8002362
:102120001E00DDE9062300205FF0804102F05AFE28
:1021300002F0CCFE0200330092B216001F0051ECF8
:102140001F0B02F0C3FE01003B00320089B20E00FB
:102150001700984651EC1C0B02F0B8FE43463A00BB
:10216000310080B200F0B7FF01231E0051EC190BC3
:1021700002F0ACFE0200330092B216001F0051ECD8
:102180001F0B02F0A3FE01003B00320089B20E00DB
:102190001700984651EC1C0B53EC192B02F0C2FEB1
:1021A00002F094FE43463A00310080B200F093FF03
:1021B00001234DA216001F0053EC1F2B0020DFF857
:1021C000681C02F00FFE02F081FE01003B003200AD
:1021D00089B2884616001F0053EC1C2B0020DFF844
:1021E0004C1C02F0FFFD02F071FE3B003200414644
:1021F00080B200F0D4FE01233BA216001F0053EC76
:102200001A2B0020DFF8281C02F0ECFD0022DFF87A
:10221000243C02F0E7FD02F059FE01003B003200D1
:1022200089B2884616001F0053EC1B2B0020DFF8F4
:10223000081C02F0D7FD02F049FE3B003200414687
:1022400080B200F0ACFE94F8EB00012864D1DDE927
:10225000062300205FF0804102F0C4FD02F036FE4C
:1022600003009BB21E0051EC190B02F02FFE02007E
:10227000330092B216001F0051EC1F0B02F026FE35
:1022800001003B00320089B2884616001F0053EC63
:102290001C2B0020DFF8A41B02F0A4FD02F016FEA8
:1022A0003B003200414680B200F00DFF002000F0FC
:1022B00027FEDFF8640B0388DFF8600B0288DFF885
:1022C000580B0088411E89B2DFF8500B0088401E71
:1022D00080B200F0F8FE4FF6E070ADF804001BE0AD
:1022E00000000000000000003000000014EB45007A
:1022F000B0F9220002F05EFD02000B00DDE90401EE
:1023000002F0D0FE07D214EB4500B0F9220002F033
:1023100051FDCDE904016D1C94F8EA008542E5D336
:1023200051EC190B53EC1D2B02F0FCFD02000B00CD
:10233000DDE9040102F0D2FE41EC180B002533E088
:10234000012302AA16001F0051EC1A0B0022DFF82D
:10235000F03A02F047FD0022DFF8E83A02F042FDD1
:1023600002F0B4FD01003B00320089B2884616003D
:102370001F00280002F028FD53EC1D2B02F0D2FFB5
:1023800002000B0051EC1B0B02F0CCFD0022DFF829
:10239000A83A02F027FD02F099FD3B0032004146C9
:1023A00080B200F0FCFD6D1C0B2D80F0DA80002D5A
:1023B0005FD0002000F098FD0023042216001F00CB
:1023C00051EC1A0B02F082FD01003B00320089B291
:1023D000884616001F00280002F0F6FC53EC1D2B67
:1023E00002F0A0FF02000B0051EC1B0B02F09AFD63
:1023F00002F06CFD3B003200414680B200F06BFE03
:102400004FF2DE7000F070FD00231E00DDE90601D2
:1024100000225FF0804302F0E5FC02F057FD02006D
:10242000330092B216001F0051EC1A0B0022DFF8A5
:10243000183A02F0D7FC02F049FD01003B003200DF
:1024400089B2884616001F00280002F0BDFC53EC3C
:102450001D2B02F067FF02000B0051EC1B0B02F07A
:1024600061FD02F033FD3B003200414680B200F0D6
:1024700032FE0A2D97D1002000F036FD012314F121
:10248000120216001F0051EC1A0B0022DFF8BC39B3
:1024900002F0A8FC02F01AFD01003B00320089B2F4
:1024A000884616001F00280002F08EFC53EC1D2BFE
:1024B00002F038FF02000B0051EC1B0B02F032FD62
:1024C00000225FF0404302F08DFC0022DFF88039EB
:1024D00002F088FC02F0FAFC3B003200414680B278
:1024E00000F05DFDDDE90423DFF8681902A802F0C1
:1024F000EBFFDDE904010022DFF85C3902F0D2FDD8
:10250000BFF41EAF012302AA16001F0051EC1A0BE4
:102510000022DFF8303902F065FC02F0D7FC010040
:102520003B00320089B2884616001F00280002F0E6
:102530004BFC53EC1D2B02F0F5FE02000B0051EC9E
:102540001B0B02F0EFFC0022DFF8EC3802F04AFC33
:1025500002F0BCFC3B003200414680B200F01FFD9F
:1025600021E7002521E1BDF80400009014EB4500AF
:10257000B0F9220002F01EFC53EC182B02F0AEFD65
:1025800002000B0051EC1C0B02F0CCFC02F09EFC94
:1025900003009BB21E0051EC1F0B02F097FC0200DF
:1025A000330092B216001F0014EB4500B0F9200072
:1025B00002F000FC53EC182B02F090FD02000B001F
:1025C00051EC1C0B02F0AEFC02F080FC01003B0061
:1025D000320089B2884616001F0053EC1F2B51ECC5
:1025E0001E0B02F0FFFB02F071FC3B003200414683
:1025F00080B2FDF76DFEBDF80400009014EB4500BD
:10260000B0F9220002F0D6FB53EC182B02F066FD65
:1026100002000B0051EC1C0B02F084FC0022DFF8DE
:102620001C3802F0DFFB02F051FC03009BB21E00DD
:1026300051EC1F0B0022DFF8043802F0D3FB02F04C
:1026400045FC0200330092B216001F0014EB450057
:10265000B0F9200002F0AEFB53EC182B02F03EFD67
:1026600002000B0051EC1C0B02F05CFC0022DFF8B6
:10267000CC3702F0B7FB02F029FC01003B0032002E
:1026800089B2884616001F0053EC1F2B51EC1E0B1D
:1026900002F0A8FB02F01AFC3B003200414680B277
:1026A000FDF716FEBDF80400009014EB4500B0F9EC
:1026B000220002F07FFB53EC182B02F00FFD02000A
:1026C0000B0051EC1C0B02F02DFC02F0FFFB030091
:1026D0009BB21E0051EC1F0B0022DFF8603702F0A6
:1026E00081FB02F0F3FB0200330092B216001F00E0
:1026F00014EB4500B0F9200002F05CFB53EC182B02
:1027000002F0ECFC02000B0051EC1C0B02F00AFC86
:1027100002F0DCFB01003B00320089B28846160063
:102720001F0053EC1F2B51EC1E0B02F05BFB002231
:10273000DFF8083702F056FB02F0C8FB3B0032001E
:10274000414680B2FDF7C4FD94F8EA00401E854280
:102750002AD1002000F0C8FB0123A21C16001F0094
:1027600051EC1F0B0022DFF8F43602F03BFB02F0C5
:10277000ADFB01003B00320089B2884616001F0005
:1027800053EC1C2B0020DFF8141502F02BFB002269
:10279000DFF80C3502F026FB02F098FB3B0032001C
:1027A000414680B200F0FBFB6D1C94F8EA008542C4
:1027B00080F06D8251EC1F0B53EC1E2B02F0B2FB2C
:1027C00041EC1F0B002000F08FFB012304221600B8
:1027D0001F0051EC1F0B0022DFF8FC3602F002FB59
:1027E00002F074FB01003B00320089B20E001700BA
:1027F000984651EC1C0B02F069FB43463A0031004D
:1028000080B200F068FC94F8EA00102855DA6A1CDF
:10281000B0A102A802F058FE012302AA16001F0070
:1028200051EC1F0B0022DFF8043602F0DBFA02F055
:102830004DFB01003B00320089B2884616001F00A4
:1028400053EC1C2B0020DFF8E41502F0CBFA02F069
:102850003DFB3B003200414680B200F0A0FB4FF24E
:10286000DE7000F041FB01231E0051EC190B02F059
:102870002DFB0200330092B216001F0051EC1F0B1B
:102880000022DFF8543602F0ADFA02F01FFB01001F
:102890003B00320089B20E001700984651EC1C0B29
:1028A00053EC192B02F03EFB02F010FB43463A00BA
:1028B000310080B200F00FFC27E194F8EA001038F4
:1028C00019285ED2681C0321B0FBF1F201FB120053
:1028D000002840F01A816A1C7EA102A802F0F4FDD3
:1028E000012302AA16001F0051EC1F0B0022DFF883
:1028F0003C3502F077FA02F0E9FA01003B003200C1
:1029000089B2884616001F0053EC1C2B0020DFF80C
:102910001C1502F067FA02F0D9FA3B00320041467A
:1029200080B200F03CFB4FF2DE7000F0DDFA0123D4
:102930001E0051EC190B02F0C9FA0200330092B2EA
:1029400016001F0051EC1F0B0022DFF88C3502F03F
:1029500049FA02F0BBFA01003B00320089B20E00D6
:102960001700984651EC1C0B53EC192B02F0DAFAC5
:1029700002F0ACFA43463A00310080B200F0ABFB03
:10298000C3E094F8EA0029381E285ED2681C0421AE
:10299000B0FBF1F202FB1102002A40F0B6806A1C83
:1029A0004CA102A802F090FD012302AA16001F000C
:1029B00051EC1F0B0022DFF8743402F013FA02F01E
:1029C00085FA01003B00320089B2884616001F00DC
:1029D00053EC1C2B0020DFF8541402F003FA02F031
:1029E00075FA3B003200414680B200F0D8FA4FF24F
:1029F000DE7000F079FA01231E0051EC190B02F091
:102A000065FA0200330092B216001F0051EC1F0B52
:102A10000022DFF8C43402F0E5F902F057FA0100B1
:102A20003B00320089B20E001700984651EC1C0B97
:102A300053EC192B02F076FA02F048FA43463A00BA
:102A4000310080B200F047FB5FE0681C0A21B0FB58
:102A5000F1F201FB1200002857D16A1C1DA102A847
:102A600002F032FD012302AA16001F0051EC1F0BD9
:102A70000022DFF8B83302F0B5F902F027FA0100BE
:102A80003B00320089B2884616001F0053EC1C2B15
:102A90000020DFF8981302F0A5F902F017FA3B00C6
:102AA0003200414680B200F07AFA4FF2DE7000F058
:102AB0001BFA01231E0051EC190B02F007FA020069
:102AC000330092B216001F0051EC1F0B0022DFF8FA
:102AD000083401E02564000002F084F902F0F6F900
:102AE00001003B00320089B20E001700984651ECFD
:102AF0001C0B53EC192B02F015FA02F0E7F94346D0
:102B00003A00310080B200F0E6FA002D7FF42BADE0
:102B1000BDF80400009014EB4500B0F9220002F06B
:102B200049F953EC182B02F0D9FA02000B0051ECD2
:102B30001C0B02F0F7F902F0C9F903009BB21E006A
:102B400051EC1F0B02F0C2F90200330092B21600E2
:102B50001F0051EC1C0B02F0B9F901003B003200E0
:102B600089B2884616001F0053EC1F2B51EC1E0B38
:102B700002F038F902F0AAF93B003200414680B277
:102B8000FDF7A6FBBDF80400009014EB4500B0F97A
:102B9000220002F00FF953EC182B02F09FFA02000A
:102BA0000B0051EC1C0B02F0BDF90022A34B02F00C
:102BB00019F902F08BF903009BB21E0051EC1F0BB8
:102BC00002F084F90200330092B216001F0051ECAB
:102BD0001C0B0022994B02F005F902F077F9010075
:102BE0003B00320089B2884616001F0053EC1F2BB1
:102BF00051EC1E0B02F0F6F802F068F93B003200CF
:102C0000414680B2FDF764FBBDF80400009014EB70
:102C10004500B0F9220002F0CDF853EC182B02F079
:102C20005DFA02000B0051EC1C0B02F07BF902F084
:102C30004DF903009BB21E0051EC1F0B00227F4B8D
:102C400002F0D0F802F042F90200330092B216000E
:102C50001F0051EC1C0B02F039F901003B0032005F
:102C600089B2884616001F0053EC1F2B51EC1E0B37
:102C700002F0B8F80022714B02F0B4F802F026F925
:102C80003B003200414680B2FDF722FB5CE50120AB
:102C900008B0BDEC108BBDE8F081000000000840DA
:102CA000000030402DE9F84F0400207C082840F057
:102CB000B1805FF0000800275FF000095FF0000BB3
:102CC0000020ADF800000025DFF810A26068466A19
:102CD000606890F82000626892F91F2000B212B27A
:102CE00090420ADA606890F91F000A30ADF80000DF
:102CF000606890F8200010F10905606890F91F00E5
:102D0000626892F8202000B212B290420ADA60683B
:102D100090F91F000830ADF80000606890F82000BE
:102D200010F10905C9B2002934D1002727E0BBF111
:102D3000000F05D1DAF800901AF1040A5FF4002BB5
:102D400019EA0B0F0FD0208950FA87F0BDF8001058
:102D5000411A89B2A08950FA88F0123880B200F086
:102D60001CFA3080B61C5FEA5B0B18F101085FFAB1
:102D700088F8DFF86C0100688045D8D37F1CDFF845
:102D800060014068FFB2B84244D35FF0000B5FF0CF
:102D90000008ECE7606890F82000616891F91F1066
:102DA00000B209B2884235D06068466A002726E042
:102DB000BBF1000F05D1DAF800901AF1040A5FF4B4
:102DC000002B19EA0B0F0ED008233288208950FA05
:102DD00087F0411B89B2A08950FA88F0123880B27E
:102DE00000F0CBF9B61C5FEA5B0B18F101085FFA43
:102DF00088F8DFF8EC0000688045D9D37F1CFFB26B
:102E0000DFF8DC004068874204D25FF0000B5FF01F
:102E10000008ECE7BDE8F18F9E0000209C00002038
:102E20000000104000002640000014400000184040
:102E300000003E40000022C0000014C00000F0BFAF
:102E40000000204000004E40000010C00000424042
:102E5000000030C0EC15010800408F4000003840F1
:102E600030B583B004000025DFF878000078002832
:102E70002CD1DFF8700001220270002C02D100205A
:102E800029E06D1C608B854220D214EB8500006A1E
:102E9000008889B28842F4D100A814EB8501096A40
:102EA0000831082201F03AFFDDE900010A000100C3
:102EB00014EB8500006A14EB85031B6A5B69984775
:102EC000DFF8200000210170012004E0DFF8140089
:102ED0000021017000203EBD0000F03F38000020BE
:102EE0002C0000206F19002001B5BDF8000002F091
:102EF00005FB01BD01B5BDF8000002F007FB01BDF7
:102F000080B580B202F00AFB01BD2DE9F8430C0048
:102F100015005FF000085FF000090026002706009A
:102F200027000020804603E0761C270018F10108E6
:102F3000DFF88007007880452FD25FF000090DE0B0
:102F40000823DFF874070288390089B2F6B230002E
:102F500080B200F012F97F1E19F10109DFF85C0759
:102F600000788145E0D2DFF8A4080078002806D177
:102F700035F81800012111FA09F108420BD0DFF8E9
:102F80008C0800780128DBD135F81800802151FA2F
:102F900009F10842D4D17F1EDEE7BDE8F1832DE9B7
:102FA000F84304000D0016001F005FF00008ADB2EA
:102FB000DFF808070078401E95FBF0F909E0DFF81C
:102FC000FC060078281A4FF6FF71451A761C18F196
:102FD00001083078002827D00120C84524D2C00736
:102FE00022D53B00DBB23278290089B2200080B2C2
:102FF00000F01CF83078412811D0307847280ED0E6
:1030000030784D280BD030784F2808D030785128B0
:1030100005D03078582802D030786D28CFD1DFF82D
:103020009C0600782D1AD1E7BDE8F18310B5203A4F
:10303000DFF8D8472478002C02D0012C21D041E0C1
:10304000DBB2012B0ED1D2B2DFF868361B785A43BF
:10305000DFF8BC371B6813EB420289B280B2FFF77E
:1030600054FF0DE0D2B2DFF84C361B785A43DFF83C
:10307000A0371B6813EB420289B2C0B200F0ABF874
:1030800020E0DBB2012B0ED1D2B2DFF828361B785C
:103090005A43DFF880371B6813EB420289B280B2D3
:1030A000FFF733FF0DE0D2B2DFF808361B785A4342
:1030B000DFF860371B6813EB420289B2C0B200F040
:1030C0008AF8FFE710BD80B59BB2D2B289B280B258
:1030D00002F046FA01BD80B5DBB292B289B280B28D
:1030E00002F074FA01BD1CB504000020009000201D
:1030F0000190A11C01A800F01FF914F10A0100A819
:1031000000F01AF941F20801032002F097FA02F0E8
:103110009CFA0CE00098005D0099091949780902B1
:10312000081880B202F096FA0098801C009000986F
:1031300001998842EED341F21801032002F07EFA91
:1031400013BDDFF8C8160870C0B2002802D00128ED
:1031500009D011E0DFF8640510210170DFF8540593
:103160001821017008E0DFF8540508210170DFF82C
:1031700044050C210170FFE7704710B514000922C7
:10318000134205D089B280B202F0DDF902F05DFA97
:10319000200080B202F05EFA10BD70B50024002558
:1031A000002689B280B202F0CEF900F0D9F804000E
:1031B00000F0D6F8040000F0D3F80400E0020500A7
:1031C000A4B2E00A060014F4FC6456EA05000443C5
:1031D000200080B270BD2DE9F8430C0015005FF0AF
:1031E00000085FF00009002700260021ADF800105C
:1031F000070026000020804613E0DFF8BC040088AA
:10320000ADF800000423BDF80020310089B2FFB200
:10321000380080B2FFF7B1FF761E7F1C260018F140
:103220000108DFF890040078804580F08380DFF8A3
:10323000DC050078002803D115F81800C00708D570
:10324000DFF8C8050078012809D115F81800000634
:1032500005D4DFF8C4050088ADF8000004E0DFF80D
:1032600058040088ADF800000123BDF800203100AB
:1032700089B2FFB2380080B2FFF77FFF761E5FF0A1
:10328000010911E0DFF830040088ADF800000223E6
:10329000BDF80020310089B2FFB2380080B2FFF7DC
:1032A0006CFF761E19F10109DFF810040078401E4A
:1032B00081451DD2DFF854050078002806D135F885
:1032C0001800012111FA09F108420BD0DFF83C0582
:1032D00000780128D6D135F81800802151FA09F17B
:1032E0000842CFD1DFF830050088ADF80000CEE706
:1032F00019F10109DFF814050078002806D135F826
:103300001800012111FA09F108420DD0DFF8FC0480
:10331000007801287FF471AF35F81800802151FA48
:1033200009F108427FF469AFDFF8EC040088ADF8DA
:10333000000067E7BDE8F183002202600A780260BE
:1033400002684B7812EB0322026002688B7812EB62
:10335000034202600268C97812EB016101607047A4
:1033600080B502F07AF902BD80B5DFF8B0140870BC
:10337000DFF8A8040078002805D141F218010320E5
:1033800002F05CF91FE0DFF894040078012805D111
:1033900041F23001032002F051F914E0DFF87C041F
:1033A0000078022805D141F22801032002F046F9F5
:1033B00009E0DFF868040078032804D14FF4805155
:1033C000032002F03BF901BD2DE9F04704000D0098
:1033D00016005FF000095FF0000A00275FF00008A8
:1033E000DFF838040078002804D0DFF830040078D3
:1033F000022807D12700290089B2380080B202F0E4
:10340000A2F810E0DFF814040078012804D0DFF8F7
:103410000C040078032806D1A846414689B2200052
:1034200080B202F090F85FF000090EE0DFF8EC03E4
:103430000078032807D1B8F10108414689B220007D
:1034400080B202F080F819F10109DFF86802007813
:10345000814564D2DFF8C803006849F22031884210
:1034600006D0DFF8BC03006845F20841884201D16C
:1034700002F0EBF85FF0000A06E0DFF83C0200889B
:1034800002F0E8F81AF1010ADFF83002007882450C
:103490001DD2DFF878030078002806D136F819002D
:1034A000012111FA0AF108420BD0DFF8600300781D
:1034B0000128E2D136F81900802151FA0AF10842B8
:1034C000DBD1DFF85403008802F0C4F8DAE7DFF854
:1034D0004C030078002807D17F1C290089B23800EE
:1034E00080B202F030F8AEE7DFF830030078012850
:1034F00008D118F10108414689B2200080B202F0DB
:1035000022F8A0E7DFF81403007802288ED17F1E8E
:10351000290089B2380080B202F015F893E7BDE8BF
:10352000F08780B5203ADFF8E4321B78002B02D018
:10353000012B0FD01DE0D2B2DFF878311B785A434F
:10354000DFF8CC321B6813EB420289B280B2FFF77E
:103550003BFF0EE0D2B2DFF85C311B785A43DFF854
:10356000B4321B6813EB420289B280B2FFF72CFF22
:10357000FFE701BDF8B51400002500260027DFF89D
:10358000A4221080DFF894221278002A09D1DFF8F3
:1035900098020088DFF82421127890FBF2F70E00E1
:1035A0004BE0DFF878221278012A09D1DFF87C029B
:1035B0000088DFF80821127890FBF2F70E003CE05B
:1035C000DFF858221278022A10D1DFF85C22128824
:1035D000DFF8E8301B7892FBF3F70E00DFF84C12AF
:1035E0000988081ADFF83C12088026E0DFF82C2250
:1035F0001278032A21D1DFF8342212882F4B1B784E
:1036000092FBF3F70E00DFF820120988081ADFF8A2
:103610001412088011E0DFF80402007803280AD1B0
:103620002278DFF800020188300080B2FFF779FFCE
:1036300022480078361A641C6D1C2078002838D087
:103640000120FFB2BD4234D2C00732D5DFF8CC0131
:10365000007800280BD12278310089B2DFF8C4014C
:103660000088FFF75EFF15480078361AE3E7DFF8B9
:10367000AC01007801280BD12278DFF8A80101887D
:10368000300080B2FFF74DFF0C4800783618D2E7C3
:10369000DFF8880100780228BDD12278310089B294
:1036A000DFF880010088FFF73CFF044800783618F7
:1036B000C1E7F1BDA40000206A190020A30000208A
:1036C0002DE9FC4104000D0016001F0000200090B1
:1036D000002001905FF00008A11C01A8FFF72CFE5C
:1036E00014F10A0100A8FFF727FE08984B49097852
:1036F00000290FD103009BB23A0092B2310089B287
:10370000280080B2FFF7DFFC41F20801032001F03E
:1037100095FF3EE041490978012910D13B009BB259
:10372000020092B2310089B24019401E80B2FFF708
:10373000CAFC41F21001032001F080FF29E0374963
:103740000978022911D103009BB23A0092B2801984
:10375000411E89B27819401E80B2FFF7B4FC41F2D5
:103760003801032001F06AFF13E02C49097803298E
:103770000FD13B009BB2020092B2B819411E89B230
:10378000280080B2FFF79FFC4FF48151032001F025
:1037900055FF310089B2280080B201F0D4FE2048E4
:1037A000006849F22031884205D01D48006845F282
:1037B0000841884211D101F048FF0EE00098005DF9
:1037C000009909194978090211EB0008404680B2B6
:1037D00001F040FF0098801C0090009801998842F9
:1037E000ECD30E480078FFF7BFFD0F4803880F4861
:1037F00002880D480088411E89B20C480088401E8E
:1038000080B2FFF760FCBDE8F3810000A200002059
:103810006C00002074000020A00000206C19002023
:103820007C000020681900209E0000209C000020E1
:1038300000F10103810704D010F8011B89B1810751
:10384000FAD10268B2F10131914311F0803F04BF17
:1038500050F8042FF6E710F8011B11B110F8011B06
:10386000FBE7C01A704710B450F8041B81B102681E
:103870001218001D50F8043BDC0744BFA9F10104F5
:10388000E31852F8044B43F8044B091FF9D1EBE756
:1038900010BC704701B58B0718D1121F21D351F806
:1038A000043BA3F1013C2CEA030C1CF0803C04BF58
:1038B00040F8043BF1E79CFA8CFCBCFA8CF1C1F1B6
:1038C00018018B40CB4040F8043B13E0042A09D395
:1038D00011F8013B521E00F8013B5BB18B07F7D199
:1038E000DBE7121D5AB111F8013B521E00F8013BF3
:1038F00003B1F8D111001CBF002201F0C1FE01BDCF
:1039000000F5DE700268914203D343689A18914231
:1039100002D380680028F5D17047DFF8D40601682B
:1039200099B94FF48031816004224FF48051416095
:103930004FF0FF31C160016104214161DFF8B4162D
:10394000C1F8B821DFF8B01601600120704701F11D
:10395000080313F0070305D001F10803C3F10803BE
:1039600003F007035918D21A8161C26042F00103C3
:103970004B60511828224A60DFF874160969C1614A
:1039800070472DE9F84F054601F1080010F00700D7
:1039900005D001F10800C0F1080000F0070000EBBD
:1039A000010A02F1080010F0070005D002F108003A
:1039B000C0F1080000F007008418A4EB0A00A0EB97
:1039C000030803EB0A0743F00300CAF80400A74208
:1039D00028BF01F084FE2079C00758BF01F07FFEA8
:1039E000B8F1100F38BF01F07AFEA869844207D100
:1039F000E8684044E860AF6140F0010078604CE165
:103A00006869844208D1A8684044A8606F6140F0AA
:103A100001017960C05140E1606800F003010129B3
:103A200040F09F80C008C0004FEAD00B0090BBF16F
:103A3000200F2FD2E668D4F80890B44208BF01F0F6
:103A40004EFE4C4508BF01F04AFE6068C008C00049
:103A5000B0EBCB0F18BF01F042FEB14506D128688C
:103A6000012101FA0BF18843286077E005EBCB00D8
:103A700000F12801894502D0296989456CD3283095
:103A8000864202D02869864266D3C9F80C60C6F81F
:103A9000089063E0E668D4F81890A64206D0A068C3
:103AA000296988421DD3C660B0601CE004F114008F
:103AB000066836B904F110000668A6B101E00846B0
:103AC000066806F114010A68002A02BF06F1100117
:103AD0000A68002AF3D12969884202D300210160D3
:103AE00001E001F0FCFDB9F1000F37D0E06905EB12
:103AF000800000F5987001688C4209D106603000A2
:103B000014D1E2696868012191408843686025E02A
:103B10002869814508D3D9F81000A04214BFC9F81C
:103B20001460C9F8106001E001F0D9FDB6B1286950
:103B3000864211D3C6F81890216929B1814226BF67
:103B400031618E6101F0CBFD606938B1296988422D
:103B500002D37061866101E001F0C1FD0098041993
:103B6000804460684008400060604FEAD80648F032
:103B70000100786048F80780202E21D205EBC600AE
:103B800000F12804A146B8F1100F38BF01F0A7FDDD
:103B9000286820FA06F1C90704D40121B14008437E
:103BA000286006E0A068296988422CBF814601F0A0
:103BB00096FDA760C9F80C70C7F80890FC606CE02F
:103BC0005FEA182008BF002123D0B0F5803F28BF4E
:103BD0001F211ED2A0F58071090C01F00801884058
:103BE000A0F58052120C02F004029040A0F5804330
:103BF0001B0CC1F10E0103F00203891AC91A984087
:103C000001EBD030C11D28FA01F101F0010101EBF7
:103C10004001F96100227A613A6105EB81006A682E
:103C200022FA01F300F59870DB0706D4012303FAAA
:103C300001F11143696007601CE01F2900680EBF95
:103C400000214908C1F1190108FA01F100E010460C
:103C50004268D208D200424510D0CA0F00EB82025F
:103C600002F1100349001A68002AF0D129698B4239
:103C700011D31F60B861FF60BF600EE02A698168E0
:103C8000904228BF914206D3CF608760B960F86048
:103C90000020B86101E001F022FD0AF10800BDE852
:103CA000F28F2DE9F04F0546DFF8440383B000683A
:103CB000884608B9FFF731FE01F014FD00281EBF49
:103CC0000446076814F1010F00F08F81D5F8B001A8
:103CD0003818C5F8B001D5F8B411814238BF014693
:103CE000C5F8B411A86968BB286908B1844200D23C
:103CF0002C61C5F8BC41C5F8C0710020C5F8C801E9
:103D00002021BB48006868624FF0FF3028622846D7
:103D100000F128020830D2609260491EF8D1B548FF
:103D2000854203D1A7F12802214625E055F8040C6D
:103D3000C00805EBC000A0F108013819401AA0F135
:103D4000280219E005F5DE71084600E08068B8B188
:103D500042680368D2189442F8D1027B12070FD44C
:103D6000AA699A420CD3466833449A4208D2B919D8
:103D70004160E868A9693A182846FFF7E8FD1FE1A5
:103D80002869844238BF2C610846391900E08068F0
:103D900080B102688A42FAD1017B09070AD4046023
:103DA00043464168791841602846214603B0BDE882
:103DB000F04FE6E5AE6931462846FFF7A1FD4168C0
:103DC0000068081801902F3800F1080111F0070170
:103DD00005D000F10801C1F1080101F0070101EB74
:103DE000000906F11000814538BFB14609F108000D
:103DF000009004F1080109F1180A4FF0000BA7F137
:103E0000280011F0070105D004F10801C1F10801F3
:103E100001F007010A19401AAA61E86040F00101A7
:103E2000516080182821416071480069E86100985C
:103E300010F0070018BF01F052FC1B20C9F8040065
:103E400005F5DE71B1E80C500098A0E80C50C5F8FB
:103E5000BC41C5F8C071C5F8C8B10098C5F8C40127
:103E6000019800E08A460722CAF804200AF10401FA
:103E70000A1D0BF1010B8242F4D3BBF1020FB8BF54
:103E800001F02DFCB14500F09B80A9EB06008119E3
:103E90004FEAD0094A68520852004A6040F00101D6
:103EA00071608051B9F1200F1FD205EBC90101F1FA
:103EB00028042746102838BF01F011FC286820FA92
:103EC00009F1C90705D4012101FA09F10843286065
:103ED00006E0A068296988422CBF074601F0FFFB75
:103EE000A660FE60B760F4606AE0010A08BF0022C5
:103EF00023D0B1F5803F28BF1F221ED2A1F58072CA
:103F0000120C02F008029140A1F580531B0C03F043
:103F100004039940A1F58044240CC2F10E0204F080
:103F20000204D21A121BA14002EBD131CA1D20FAA1
:103F300002F202F0010202EB4102F261002373611E
:103F4000336105EB82016B6823FA02F401F5987185
:103F5000E40705D401209040184368600E601CE01F
:103F60001F2A09680EBF00225208C2F1190200FA86
:103F700002F200E019464B68DB08DB00834210D0F8
:103F8000D30F01EB830303F1100452002368002BCD
:103F9000F0D12869844211D32660B161F660B66021
:103FA0000EE02A698868914228BF904206D3C66015
:103FB0008E60B060F1600020B06101E001F08FFB25
:103FC000E868804511D2A0EB0800E86040F00100ED
:103FD000A96908EB0102AA61506048F0030048603B
:103FE00003B001F10800BDE8F08F002000F0C8BA6E
:103FF000BC180020C81500206859883C2DE9F84FEE
:10400000044688460026C8F1000B5FEA182008BF66
:10401000002123D0B0F5803F28BF1F211ED2A0F57C
:104020008071090C01F008018840A0F58052120C43
:1040300002F004029040A0F580431B0CC1F10E0178
:1040400003F00203891AC91A984001EBD030C11D50
:1040500028FA01F101F0010101EB400104EB8100BC
:10406000D0F8300130B31F290EBF00224A08C2F138
:10407000190208FA02F2002300E052004568ED0838
:10408000ED00A5EB08055D4503D206465FEA050B8A
:104090000CD045694FEAD27E00EB8E00002D0069FE
:1040A0001CBF85422B460028E7D1184600283AD18C
:1040B000002E3AD101208840400041420843616807
:1040C000084000F0598141420840411E080B00F0B1
:1040D000100021FA00F2510901F00801CA409308CA
:1040E00003F00403DA40550805F002050818EA4019
:1040F0001818C2F3400E2844704422FA0EF1081832
:1041000004EB8000D0F830010DE008464168C90892
:10411000C900A1EB080159453CBF8B460646016921
:104120000029F2D140690028F0D1002E00F024814E
:10413000A068A0EB0800834580F01E8120698642BC
:10414000C0F018817068C00808EB0B09C00008EBCC
:104150000605484518BF01F0C2FAAE4280F00A8158
:10416000F768D6F818A0B74206D0B068216988422F
:104170001DD3C760B8601CE006F11400076837B9AA
:1041800006F110000768A7B101E00846076807F1CB
:1041900014010A68002A02BF07F110010A68002A08
:1041A000F3D12169884202D30021016001E001F0CE
:1041B00096FABAF1000F38D0F06904EB800000F5F0
:1041C000987001688E4209D10760380014D1F269F5
:1041D0006068012191408843606026E02069824543
:1041E00008D3DAF81000B04214BFCAF81470CAF845
:1041F000107001E001F073FABFB12069874212D359
:10420000C7F818A0306930B12169884226BF3861EB
:10421000876101F064FA706938B12169884202D37C
:104220007861876101E001F05AFABBF1100F09D201
:1042300049F00300706009EB0600416841F001019C
:10424000416096E048F0030070604BF00100686048
:104250004BF805B04FEADB0020281DD204EBC0016B
:1042600001F12807216821FA00F2BB46D20705D4E4
:10427000012202FA00F00843206006E0B8682169D4
:1042800088422CBF834601F02AFABD60CBF80C505F
:10429000C5F808B0EF606CE05FEA1B2008BF0021A2
:1042A00023D0B0F5803F28BF1F211ED2A0F580711A
:1042B000090C01F008018840A0F58052120C02F0B0
:1042C00004029040A0F580431B0CC1F10E0103F0E5
:1042D0000203891AC91A984001EBD030C11D2BFA8C
:1042E00001F101F0010101EB4001E96100226A6185
:1042F0002A6104EB8100626822FA01F300F59870EC
:10430000DB0706D4012303FA01F111436160056064
:104310001CE01F2900680EBF00214908C1F11901E6
:104320000BFA01F100E010464268D208D2005A456B
:1043300010D0CA0F00EB820202F1100349001A6884
:10434000002AF0D121698B4211D31D60A861ED6074
:10435000AD600EE022698168904228BF914206D389
:10436000CD608560A960E8600020A86101E001F0EF
:10437000B6F901E101F0B3F9FBE02DE9F84F04468D
:104380008846606841420840411E080B00F010005A
:10439000C1404A0902F00802D1408B0803F004032F
:1043A000D9404D0805F002051018E9401818C1F36E
:1043B000400628443018F140081804EB8000D0F87B
:1043C00030014168C908C9000646A1EB080A09E0A6
:1043D00008464168C908C900A1EB080151453CBF26
:1043E0008A46064601690029F2D140690028F0D1C9
:1043F00020698642C0F0BB807068C00808EB0A09DB
:10440000C00008EB060B484518BF01F068F95E458F
:1044100080F0AD80F768B569B74206D0B068216911
:1044200088421DD3C760B8601CE006F1140007681D
:1044300037B906F110000768A7B101E00846076820
:1044400007F114010A68002A02BF07F110010A6887
:10445000002AF3D12169884202D30021016001E0E2
:1044600001F03DF9002D34D0F06904EB800000F537
:10447000987001688E4209D10760380011D1F26945
:104480006068012191408843606022E02069854294
:1044900005D32869B04214BF6F612F6101E001F0BC
:1044A0001EF9B7B12069874211D3BD61306930B1BF
:1044B0002169884226BF3861876101F010F970696F
:1044C00038B12169884202D37861876101E001F047
:1044D00006F9BAF1100F09D249F00300706009EB38
:1044E0000600416841F0010141603FE048F00300EF
:1044F00070604AF00100CBF804004AF80BA0D4F831
:104500000880B8F1000F2DD0D4F814904FEAD805E8
:10451000202D28BF01F0E3F8009504EBC50000F161
:1045200028052F46B8F1100F38BF01F0D8F82068E1
:10453000009920FA01F1C90705D4009A01219140A0
:104540000843206006E0A868216988422CBF07461E
:1045500001F0C5F8C5F80890C7F80C90C9F80870C4
:10456000C9F80C50C4F808A0C4F814B004E001F075
:10457000B6F80020BDE8F28F06F10800BDE8F28F22
:1045800003B0BDE8F08F2DE9F04F83B00546C0467B
:10459000C046DFF87047F52D80F0F7800B2D31BF56
:1045A000102705F10B00C008C7002068FE08F04086
:1045B00010F0030F3DD0C04300F00100861904EB5A
:1045C000C60000F12808F700D8F808506868C0084D
:1045D000C000B84218BF01F082F8D5F808904545F0
:1045E00008BF01F07CF84D4508BF01F078F8686815
:1045F000C008C000B84218BF01F071F8C84505D125
:1046000020680121B1408843206008E0206981458D
:1046100026BFC8F80890C9F80C8001F060F847F090
:104620000300686078190835416841F00101416074
:10463000F3E0A168B94280F0BA80002800F09C80C5
:10464000012505FA06F149004A42B04011430840ED
:1046500041420840411E080B00F01000C1404A09C9
:1046600002F00802D1408B0803F00403D9404E0841
:1046700006F002061018F1401818C1F3400830186F
:10468000404421FA08F101EB000804EBC80000F1F6
:1046900028094FEAC80AD9F808607068C008C00045
:1046A000504518BF01F01BF8D6F808B04E4508BFBA
:1046B00001F015F85E4508BF01F011F87068C008F8
:1046C000C000504518BF01F00AF8D94505D120684F
:1046D00005FA08F18843206008E02069834526BF79
:1046E000C9F808B0CBF80C9000F0F9FF47F00300D0
:1046F0007060AAEB0708B819019048F00101416009
:10470000019848F80080A7687FB3D4F814904FEA66
:10471000D70ABAF1200F28BF00F0E1FFCDF800A0C2
:1047200004EBCA0000F1280AD346102F38BF00F06E
:10473000D6FF2068009920FA01F1C90705D4009935
:1047400005FA01F10843206007E0DAF80800216962
:1047500088422CBF834600F0C2FFCAF80890CBF80D
:104760000C90C9F808B0C9F80CA0C4F8088006F18C
:1047700008050198606150E06068C0B33946204682
:10478000FFF7FBFD050012D047E015F1400F28BFF1
:104790004FF0FF370BD205F10B00C008C70060686F
:1047A00028B139462046FFF729FC050035D1A1681C
:1047B000B9421CD3CA1B6069102A0AD33918616137
:1047C000A26042F001034B60525047F00301416088
:1047D0000AE00022A260626141F00302426009180F
:1047E0004A6842F001024A6000F1080515E0E068FD
:1047F00087420DD2C01BA169E0607A18A26140F027
:104800000100506001F1080547F00300486004E032
:1048100039462046FFF745FA0546C046C0462846B9
:10482000AEE600B970472DE9F047A0F10804C04694
:10483000C046DFF8D05428698442C0F05B826168CA
:1048400001F00302012A00F05582CA084FEAC208AB
:1048500008EB0409CA072DD4226811F0030F00F0F9
:104860004B8251420C1990448442C0F043826969E2
:104870008C4200F0CB804FEAD20ABAF1200F67D207
:10488000E768A668BC4208BF00F029FFB44208BF31
:1048900000F025FF6068C008C000B0EBCA0F18BF69
:1048A00000F01DFFBE423ED12868012101FA0AF145
:1048B000884328604C4580F01D82D9F80400C10768
:1048C00040F11882810700F16A81A969894540F0A9
:1048D000B280E868AC614044E86040F0010161608A
:1048E00069698C4202D100216961A960E96981424C
:1048F00080F00282DFF80804006808B9FFF70DF8BD
:10490000A969002900F0F881E868292824BF284611
:10491000FEF7F6FFE869E968884280F0ED814FF024
:10492000FF30E861E8E105EBCA0000F128018E42A2
:1049300002D029698E4208D32830874202D02869E4
:10494000874202D3F760BE60B4E700F0C8FEB1E76B
:10495000E768A669A74205D0A16881421CD3CF6051
:10496000B9601BE004F114010F6837B904F11001BC
:104970000F689FB101E011460F6807F11402136838
:10498000002B02BF07F110021368002BF3D1814204
:1049900002D30020086001E000F0A1FE002E89D0C3
:1049A000E06905EB800000F5987001688C4209D140
:1049B0000760380011D1E26968680121914088439D
:1049C000686077E72869864205D33069A04214BF42
:1049D0007761376101E000F082FE002F3FF46AAF9B
:1049E00028698742B1D3BE61216929B1814226BFBE
:1049F00039618F6100F073FE606900283FF45AAF9F
:104A000029698842A1D37861876153E799F8040046
:104A100000F0030003287FF44DAFC5F80880D9F8F3
:104A2000040040084000C9F8040048F0010060603C
:104A300048F8048060E16969894508D1A8686C611B
:104A40004044A86040F001016160005154E1C00899
:104A5000C0004FEAD00A8044BAF1200F2FD2D9F813
:104A60000C70D9F80860B94508BF00F038FEB145B0
:104A700008BF00F034FED9F80400C008C000B0EB55
:104A8000CA0F18BF00F02BFEBE4206D128680121D4
:104A900001FA0AF18843286076E005EBCA0000F1CC
:104AA00028018E4202D029698E426BD3283087427A
:104AB00002D02869874265D3F760BE6064E0D9F808
:104AC0000C70D9F818604F4507D0D9F8080029694B
:104AD00088421DD3C760B8601CE009F11400076864
:104AE00037B909F110000768A7B101E00846076867
:104AF00007F114010A68002A02BF07F110010A68D1
:104B0000002AF3D12969884202D30021016001E023
:104B100000F0E5FD002E37D0D9F81C0005EB800031
:104B200000F59870016889450AD10760380012D1F4
:104B3000D9F81C206868012191408843686023E00F
:104B40002869864205D33069484514BF77613761CB
:104B500001E000F0C4FDBFB12869874212D3BE61F5
:104B6000D9F8101029B1814226BF39618F6100F058
:104B7000B6FDD9F8140038B12969884202D37861AA
:104B8000876101E000F0ABFD48F00100606048F88B
:104B90000480686984420BD1C5F80880ACE0400805
:104BA0004000C9F8040048F00100606048F8048043
:104BB0004FEAD807202F22D205EBC70000F12809C1
:104BC0004E46B8F1100F38BF00F089FD286820FA72
:104BD00007F1C90704D40121B9400843286007E060
:104BE000D9F80800296988422CBF064600F077FDF5
:104BF000C9F80840F460A660C4F80C907CE05FEA55
:104C0000182008BF002123D0B0F5803F28BF1F2106
:104C10001ED2A0F58071090C01F008018840A0F5B2
:104C20008052120C02F004029040A0F580431B0C4D
:104C3000C1F10E0103F00203891AC91A984001EB71
:104C4000D030C11D28FA01F101F0010101EB400152
:104C5000E16100226261226105EB81006A6822FA4B
:104C600001F300F59870DB0706D4012303FA01F184
:104C70001143696004601CE01F2900680EBF002119
:104C80004908C1F1190108FA01F100E01046426833
:104C9000D208D200424510D0CA0F00EB820202F1C6
:104CA000100349001A68002AF0D129698B4211D3F8
:104CB0001C60A061E460A4600EE02A6981689042F3
:104CC00028BF914206D3CC608460A160E0600020E0
:104CD000A06101E000F003FD286A401E28620BD1AC
:104CE000D5F8C40100E080680028FCD14FF0FF3007
:104CF000286201E000F0F3FCC046C046BDE8F08742
:104D0000BC180020C815002010B5040010000A00CF
:104D10000100200000F0B0FC200010BD62B38B0742
:104D200008D0521E11F8013B00F8013B00F024802E
:104D30008B07F6D1830740F0208000BF103A07D3DD
:104D400030B4B1E83810103AA0E83810F9D230BCCD
:104D5000530724BFB1E80810A0E8081044BF51F879
:104D6000043B40F8043BD20724BF31F8022B20F863
:104D7000022B44BF0B7803707047083A07D3B1E8A1
:104D80000810083A40F8043B40F804CBF7D2530728
:104D9000E4E750F8041B61B150F8042BD30744BF7B
:104DA000A9F101039A18002342F8043B091FFAD124
:104DB000EFE77047010040F10980F446404200F0FF
:104DC00005F851F000416047010000BF09D0B0FA7A
:104DD00080F18840C91CC1F58461090501EBD0212F
:104DE0004005704770B44FF0004591EA030C44BF92
:104DF0006B4000F0A1B800BF841A71EB030603D228
:104E0000001BB141121973414FF4001C1CEB410F00
:104E100034BF7CEB430443E00C0DA4EB1356352E5A
:104E200050DC45EAC323DB0A45EAC121C912B6F1C9
:104E300020050DDD63FA05F6EB4086EA0305124214
:104E400018BF45F00105C01851F100010CD213E064
:104E500062FA06F5F2405540F3415A40B340F34040
:104E60005A408018594107D349085FEA30005FEA89
:104E7000350528BF45F0010501F58011420875F19F
:104E8000004250F1000041EB045170BC4FF4001C93
:104E90001CEB410F38BF70470020090D0905704712
:104EA0001CEB410F10D252EA43060BD0BCEB410F72
:104EB00005D80C0DAB43661E342EB5DD02E0AB43C6
:104EC0008018594170BC704770BC7047F446400D63
:104ED00040EAC120490006D200F014F8004248BF61
:104EE0006FF00040604700F00DF84FF0004188423D
:104EF0008CBF084640426047400D40EAC12049004F
:104F000080F00D8040F00040490DA1F58061491C02
:104F100005D4D1F11F0154BFC840C01770474FF0EE
:104F20000000704770B44FF0004591EA030F44BF92
:104F30006B40FFF761BF00BF841A71EB030604D218
:104F40006E40001BB141121973414FF4001C1CEB61
:104F5000410F34BF7CEB430684E00C0DA4EB1356E9
:104F6000362E7DDC012E43DC45EAC32343EA52534F
:104F700012BFD20292025B08240545EAC12141EA30
:104F80005051D2EBC020994125D407D1B0FA80F618
:104F900010FA06F164D00020203608E0B1FA81F65C
:104FA000B140C6F1200220FA02F21143B0404FEAAC
:104FB000F474B4EB465434F001064FEA74040AD892
:104FC000D6F50016760D04F00044F04061FA06F2C2
:104FD0005040F1404840C00A40EA415021F00041B1
:104FE00028BF5FEA500550F1000044EBD12137E0C3
:104FF00045EAC323DB0A45EAC121C90AB6F1200507
:105000000EDD42EA0242120CC5F1200603FA06F652
:10501000EB4042EA06056D42984161F100010DE066
:1050200062FA06F5F240554063FA06FC82EA0C0289
:10503000F3405A406D42904161EB030111F4801F2F
:1050400005D1641E620502D06D004041494121F442
:105050008011430875F1004350F1000041EB045109
:1050600070BC70471CEB410F15D223F0004352EA8D
:1050700043060BD04FEA4C0CBCEB410F04D80C0D8F
:10508000661E342EB7DDEBE7801A994150EA4106DF
:1050900008BF0021E4E708BF1CEB430F28BF6FF0F7
:1050A0000001DDE74FF4001C1CEB410F94BF1CEB2B
:1050B000430F09E041EA030C50EA4C0C52EA0C0C95
:1050C00003D2994208BF9042704714BF8B4282427C
:1050D00070470268531C036011707047F0B540F2CE
:1050E000FF7581EA030C0CF0004C15EA11541DBF4A
:1050F00015EA1357AC42AF42E5E0BC41C1F31301DE
:10510000C3F31303801A994143F4801304D2641E3D
:105110004000494180185941C90241EA5051B1FB50
:10512000F3F603FB1611A2FB0675D7EBC020A941CD
:1051300002D2761E80185941C90241EA5051B1FB92
:10514000F3FE03FB1E11A2FB0E75D7EBC020A94195
:1051500003D2AEF1010E80185941890241EA905103
:10516000760546EA8E2EB1FBF3F603FB1611A2FB81
:105170000675D7EB8020A94102D2761E80185941CE
:10518000C90241EA50514EEA060EB1FBF3F603FBA9
:105190001611A2FB0675D7EBC020A94102D2761EDC
:1051A00080185941C90241EA5051B1FBF3F703FBA2
:1051B0001711A2FB0735D3EBC020A94167F1000707
:1051C0000CBF004247F0010766F3D5274FEA1E31B6
:1051D000B80814F5806412DDBD0775F1004250EB8C
:1051E0000E5051EB045111F5801F5CBF41EA0C01D8
:1051F000F0BD4CF07F6141F0E0410020F0BDBD0703
:105200006D0840EA0E5041F48011D4F10104B4F16C
:1052100020060ADAC4F120060200E04001FA06F393
:10522000E1401843B24015430EE0342C13DCC6F1C4
:10523000200445EA40056D0820FA06F2154321FADC
:1052400006F0A1400D43002175F1004250F100002D
:1052500051EB0C01F0BD00205FEA0C01F0BDCFB9AD
:1052600092185B41B3FA83F704BFB2FA82F6BF1912
:105270000B3FB7F120062FBF02FA06F3BB40C7F180
:10528000200622FA06F638BF3343BA401CB1E419AF
:10529000641E33E77F4231F00041B1FA81F404BF6C
:1052A000B0FA80F6A4190B3CB4F120062FBF00FA27
:1052B00006F1A140C4F1200620FA06F638BF3143BA
:1052C000A0403C1B1AE7AC421ABF05EA1357AF4295
:1052D00012E050EA41061CBF52EA4306BFE750EA1B
:1052E0004107304661461CBF41EA0551F0BD52EA14
:1052F000430C08BFC143F0BD00204FF4001616EB6D
:10530000410F98BF16EB430F08BF16EB410F24BFA8
:10531000C14305E016EB430F0CBF61464CEA055153
:10532000F0BD0000B0B581EA030C0CF0004C40F277
:10533000FF7515EA11541DBF15EA1357AC42AF4271
:1053400039E0E41923EA455343F48013C90241F0DC
:10535000004141EA505EC7021100A7FB020200288B
:105360004FF00000EEFB01204FF00001E3FB0721AE
:1053700018BF42F00102401800214941E3FB0E0131
:10538000A4F580640F0302D252004041494154F118
:1053900001046CDD470872F1004250F1000051EB4E
:1053A0000451A1F580115CBF41EA0C01B0BD4CEA8B
:1053B00005510020B0BD05EA1357AC4214BFAF42FF
:1053C00041E050EA410E1CBF52EA430E02E0614642
:1053D0000020B0BD24423C441BD15FEA070EF6D04A
:1053E000090302BF01460020AEF1140EB1FA81F7A5
:1053F000AEEB070401FA07FE0C37C7F1200100FAF3
:1054000007F7C8404EEA000E23EA455343F48013E1
:10541000A2E733F00043B3FA83F704BFB2FA82FE87
:1054200077440B3FE41BB7F1200E2FBF02FA0EF3B7
:10543000BB40C7F1200E22FA0EFE38BF43EA0E032E
:10544000BA40641C82E750EA410E14BF52EA430E90
:105450006FF000014FF4001717EB430F8ABF194696
:1054600017EB410FB5E74CEA05510020B0BDD4F170
:105470000104B4F120070FDAC4F12007520828BF55
:1054800042F0010210FA07F501FA07F7E1BF2A43DB
:10549000E0403843E1400FE0352C98DCC7F12004B0
:1054A00052EA400220FA07F218BF42F0010231FA34
:1054B00007F0A1400A43002172F1004250F10000C0
:1054C00051EB0C01B0BD00000CB41CB5044604A89F
:1054D00001900A46009401AB00A9074878441830AF
:1054E00000F016F9009900220A7000285CBF0098AD
:1054F000001B16BC5DF80CFBDBFBFFFF01B4DFF803
:105500006C01BDF80010018001B0704701B4DFF8F4
:105510006001BDF80010018001B0704738B504008B
:10552000002540F23F11002000F00DF800F08DF84A
:105530000020050003E0DFF83C0104806D1CB5F598
:10554000963FF8D331BD10B50C00010089B2202080
:1055500000F074F8210089B2212000F06FF810BD2E
:1055600070B504000D001E001000C0B2A4B280B2DD
:10557000844207D3D2B2A01A411C89B2502000F055
:105580005DF803E00021502000F058F8210089B2B6
:10559000512000F053F8ADB2B6B2B54206D3A81B05
:1055A000411C89B2522000F049F803E0002152204A
:1055B00000F044F8290089B2532000F03FF8290098
:1055C00089B2200080B2FFF7BEFF70BD2DE9F04127
:1055D00004000D0016001F005FF00008290089B2CA
:1055E000200080B2FFF7AFFFFFB2002F0ED100F016
:1055F0002CF85FF00008B6B2B0451DD2DFF86C00A1
:10560000008800F027F818F10108F4E75FF00008BF
:105610000FE000F01AF8DFF85400008800F01AF8E4
:10562000641C290089B2200080B2FFF78CFF18F1BA
:105630000108B6B2B045ECD3BDE8F0815FF0D042CE
:10564000C0B210800B48018070475FF0D04022212B
:10565000018070470749088070475FF0D0402221E1
:1056600001800448008880B2704700006A19002059
:10567000A00000200200006862F30F2262F31F42C4
:10568000401810F0030308D0C91A1FD3DB0748BF26
:1056900000F8012D28BF20F8022D130030B4144665
:1056A0001546103928BF20E93C00FAD8490728BF21
:1056B00020E90C0048BF40F8042D890028BF20F8DD
:1056C000022D48BF00F8012D30BC7047C91818BF23
:1056D00000F8012DCB0728BF00F8012D70470120ED
:1056E00000F092BE0749086808B1002070470648DC
:1056F000C008C00008600549C908C900091A01604E
:10570000704700BF641900207F39002078590020BD
:105710002DE9F04FA1B0824602AE002017461D468B
:10572000029170620DF144080AE017F8011B02981B
:10573000D0470290002800F08B82706A401C706293
:10574000387808B9706A85E22528EED10020F0602B
:1057500030617061B061F061306201E040F00100E1
:1057600017F8011F2029F9D023290DD02B2904D0A7
:105770002D2906D030290AD00CE040F0020080B27A
:10578000EEE740F00400FAE740F00800F7E740F0E9
:105790001000F4E72A290DD129680A1D2A6009683A
:1057A000F162002904D5494240F00400F16280B260
:1057B0007F1C13E00021F1620BE0F16A6FF00043FF
:1057C000994205D001EB810302EB43013039F162CC
:1057D0007F1C3A78A2F130010A29EED339782E29BC
:1057E00003D04FF0FF31B1621EE017F8011F2A29E4
:1057F00006D129680A1D2A607F1C0968B16213E07E
:105800000021B1620BE0B16A6FF00043994205D00C
:1058100001EB810302EB43013039B1627F1C3A781E
:10582000A2F130010A29EED330860FF6C030397864
:1058300000F0F4FD08B117F8010B8DF83A009DF85F
:105840003A00682802BF39786829622005D06C28A0
:1058500004BF38786C2803D171208DF83A007F1C82
:1058600011A8B0603978B1F1250023D01C3871D06F
:10587000001F02286ED9133800F09780093869D0CC
:10588000801E00F02B81401E00F0D480401E0228B4
:1058900060D9001F00F0CE80401F30D0401E00F0C5
:1058A0008480401E20D0C01E09D0801E7DD0C01E26
:1058B0007BD01BE1F068411CF160252120E12868C4
:1058C000011D29600068B26A7060002A02D5FDF7E8
:1058D000AFFF07E0002100F0ADFD00281ABF71689E
:1058E000401AB06A30610DE12868011D296000216D
:1058F0000068CDE9000111A870607821EAE09DF808
:105900003A00622818D0682806D06A280BD06C2884
:1059100019D0712807D016E02868011D2960006899
:10592000716A0180EEE02A68101D28601268706AB2
:10593000C117C2E90001E5E02868011D296000687F
:10594000716A0170DEE02868011D29600068716AD3
:105950000160D7E02868C01D20F00700286000F132
:1059600008022A60D0E90023CDE90023002B04D5EA
:10597000F068421CF2602D220DE0308E820704D5C3
:10598000F068421CF2602B2205E0C00705D5F068E4
:10599000421CF260202200F80820F06811AA80184A
:1059A000706000A800F0E2F9ACE09DF83A006C28C5
:1059B00008BF2A6811D0712808BF2A6802D02A6857
:1059C0006A280AD1D21D22F007022A60144604F187
:1059D00008022A60D4E9002303E0131D2B60002392
:1059E0001268CDE90023682808BF92B207D0622868
:1059F00008BFD2B203D0742818BF7A2802D100237E
:105A0000CDE9002396F8300000075FD5DDE90023DB
:105A1000002B08BF002A59D041F02000782855D12A
:105A2000F068302200F80820401C421CF26000F8A8
:105A300008104BE09DF83A0062280CD0682810D07E
:105A40006A281AD06C2823D0712816D074281FD049
:105A50007A280CD01CE02868021D2A6090F90020EA
:105A60001AE02868021D2A60B0F9002014E02868B6
:105A7000021D2A60002302680FE02868C01D20F084
:105A80000700286000F108022A60D0E9002304E042
:105A90002868021D2A600268D317CDE90023002B75
:105AA00004DAF068421CF2602D220DE0308E82078D
:105AB00004D5F068421CF2602B2205E0C00705D532
:105AC000F068421CF260202200F80820F06811AA59
:105AD0008018706000A800F0C0F813E0F068411C66
